:020000040800F2
:10000000E00A0020450100083D1200083F120008E8
:1000100043120008471200084B12000800000000BD
:100020000000000000000000000000004F12000867
:100030005112000800000000531200085512000879
:100040005F0100085F0100085F0100085F01000810
:100050005F0100085F0100085F0100085F01000800
:100060005F0100085F0100085F0100085F010008F0
:100070005F0100085F0100085F0100085F010008E0
:100080005F0100085F0100085F0100085F010008D0
:100090005F0100085F0100085F0100085F010008C0
:1000A0005F0100085F0100085F0100085F010008B0
:1000B0005F0100085F0100085F0100085F010008A0
:1000C0005F0100085F0100085F0100085F01000890
:1000D0005F010008351000085F0100085F0100089B
:1000E0005F0100085F0100085F0100085F01000870
:1000F0005F0100085F0100085F0100085F01000860
:100100005F0100085F0100085F0100085F0100084F
:100110005F0100085F0100085F0100085F0100083F
:100120005F0100085F0100085F0100085F0100082F
:10013000DFF80CD001F0F8FE004800475911000824
:10014000E00A00200648804706480047FEE7FEE731
:10015000FEE7FEE7FEE7FEE7FEE7FEE7FEE7FEE777
:1001600047020008310100080CB500200190009002
:100170006C48006840F480306A49086000BF6948F4
:10018000006800F4003000900198401C0190009835
:1001900018B90198B0F5A06FF1D16248006800F479
:1001A000003010B10120009001E000200090009884
:1001B000012843D15C48006840F010005A490860AB
:1001C0000846006820F0030008600846006840F018
:1001D0000200086053484068524948600846406839
:1001E00048600846406840F48060486008464068BF
:1001F00020F47C1048600846406840F4E8104860ED
:100200000846006840F08070086000BF45480068FC
:1002100000F000700028F9D04248406820F0030048
:10022000404948600846406840F00200486000BF0E
:100230003C48406800F00C000828F9D10CBD10B50E
:10024000FFF792FF10BD10B53648006840F001007E
:1002500034490860084640683449084031494860DC
:1002600008460068324908402E4908600846006880
:1002700020F4802008600846406820F4FE004860B2
:100280004FF41F008860FFF7DAFF4FF00060294944
:10029000086010BD10B5002100200022214B5B68D2
:1002A00003F00C0121B1042906D0082928D107E068
:1002B000214B224C236027E01F4B204C236023E07E
:1002C000184B5B6803F47010164B5B6803F48032C4
:1002D000022303EB904022B9194B4343174C236090
:1002E0000DE0104B5B6803F4003323B1144B434320
:1002F000124C236003E0104B4343104C236003E097
:100300000D4B0E4C236000BF00BF064B5B68C3F370
:1003100003130C4CE15C094B1B68CB40074C23607A
:1003200010BD000000100240002002400000FFF855
:10033000FFFFF6FE08ED00E000127A00000000204A
:1003400000093D000400002031490143314A116099
:10035000704770B5002100230F22C47804B32D4CE0
:10036000246804F4E064C4F5E064210AC1F10403E4
:10037000CA40447804FA03F1847814402143090107
:10038000254C0678A155047804F01F050124AC40E3
:1003900005786D11AD0005F1E025C5F8004109E0D3
:1003A000047804F01F050124AC401C4D067876113A
:1003B00045F8264070BD1A4A0A400243154B1B1FE0
:1003C0001A60704739B1134A121D12680243114B6B
:1003D0001B1D1A6006E00F4A121D126882430D4B66
:1003E0001B1D1A607047042808D14FF0E0210969ED
:1003F00041F004014FF0E022116107E04FF0E021ED
:10040000096921F004014FF0E022116170470000FA
:100410000000FA050CED00E000E400E080E100E0FF
:1004200080FFFF1F10B50446CC48844208D101214B
:10043000042000F02DFB0021042000F029FB46E001
:10044000C748844208D10121082000F021FB002187
:10045000082000F01DFB3AE0C248844208D1012187
:10046000102000F015FB0021102000F011FB2EE001
:10047000BD48844208D10121202000F009FB002161
:10048000202000F005FB22E0B848844208D1012179
:10049000402000F0FDFA0021402000F0F9FA16E0BB
:1004A000B348844208D10121802000F0F1FA0021F4
:1004B000802000F0EDFA0AE0AE48844207D1012125
:1004C000801500F0E5FA0021A01500F0E1FA10BD5A
:1004D00010B50121084600F0DBFA0021012000F0F0
:1004E000D7FA10BD2DE9F041024600250026002074
:1004F00000230024002791F803C00CF00F0591F8A9
:1005000003C00CF0100CBCF1000F03D091F802C036
:100510004CEA050591F800C0BCF1000F31D0146819
:1005200000202BE04FF0010C0CFA00F3B1F800C0F2
:100530000CEA03069E4220D183004FF00F0C0CFA08
:1005400003F7BC4305FA03FC4CEA040491F803C02A
:10055000BCF1280F06D14FF0010C0CFA00FCC2F8D8
:1005600014C00AE091F803C0BCF1480F05D14FF068
:10057000010C0CFA00FCC2F810C0401C0828D1D3B2
:100580001460B1F800C0BCF1FF0F34DD54680020E6
:100590002EE000F1080C4FF0010808FA0CF3B1F856
:1005A00000C00CEA03069E4221D183004FF00F0CDD
:1005B0000CFA03F7BC4305FA03FC4CEA040491F877
:1005C00003C0BCF1280F05D100F1080C08FA0CF8A3
:1005D000C2F8148091F803C0BCF1480F07D100F1B4
:1005E000080C4FF0010808FA0CF8C2F81080401C03
:1005F0000828CED35460BDE8F0814FF6FF7101802A
:10060000022181700421C170704702460020936866
:100610000B400BB1012000E00020704701468868C4
:1006200080B2704702460020D3680B400BB1012016
:1006300000E0002070470146C86880B27047016141
:100640007047416170470AB1016100E04161704744
:10065000C16070474FF480320A43826181618261D8
:1006600082698269704702460020434B18684FF642
:100670008073184040EA021008433F4B18607047EF
:100680003E49C8617047F0B50A46002300240021A6
:10069000002500F00046B6F1004F02D1364EF16958
:1006A00001E0354E7168C0F3034583B200F4401693
:1006B000B6F5401F08D121F070612F4E766826F004
:1006C00070662D4F7E6012E000F48016B6F5801F34
:1006D00006D1032606FA05F4A14341F0706106E055
:1006E000460D360103FA06F6B14341F0706122B1BE
:1006F000460D360103FA06F6314300F00046B6F126
:10070000004F02D11C4EF16101E01B4E7160F0BD43
:1007100030B500228B071C0F0F2303FA04F2164B8F
:1007200008338C1053F824309343134C08348D1045
:1007300044F8253023468C1053F824308C07240FBE
:1007400000FA04F423430C4C08348D1044F825308F
:1007500030BD0A49DC3108607047000000080140E4
:10076000000C01400010014000140140001801403D
:10077000001C014000200140000001400000204218
:10078000DF48006840F00100DD4908600846406825
:10079000DC490840DA49486008460068DA49084000
:1007A000D74908600846006820F4802008600846A1
:1007B000406820F4FE0048604FF41F0088607047D6
:1007C000CF49096821F48031CD4A1160114609688A
:1007D00021F480211160B0F5803F03D0B0F5802F67
:1007E0000ED106E0C649096841F48031C44A11605F
:1007F00007E0C349096841F4A021C14A116000E043
:1008000000BF00BF704710B5014600220023002042
:100810004A11012A02D1BA4C236806E0022A02D109
:10082000B74C236A01E0B64C636A01F01F02012451
:1008300094401C400CB1012000E0002010BD38B5F0
:10084000002000900024002500BF3120FFF7DBFFCF
:1008500005460098401C00900098B0F5A06F01D0AC
:10086000002DF2D03120FFF7CEFF08B1012400E0C7
:100870000024204638BD01460020A14A106820F01F
:10088000F80040EAC10010607047A0490860704756
:10089000024600209A4B586820F47C1042EA01037B
:1008A0001843974B5860704798490866704701464F
:1008B0000020934A506820F00300084350607047BE
:1008C0008F48406800F00C007047014600208C4AB9
:1008D000506820F0F0000843506070470146002047
:1008E000874A506820F4E060084350607047014632
:1008F0000020834A506820F4605040EAC1005060F4
:10090000704729B17E4A527A02437D4B5A7204E005
:100910007B4A527A82437A4B5A7270477B49D8316C
:100920000860704701460020754A506820F4404036
:100930000843506070470021714A20321170704A9C
:1009400082F82010012802D004280AD104E00121F5
:100950006B4A2032117005E00521694A203211707E
:1009600000E000BF00BF70476949086070476449F4
:10097000096A0143624A1162704765494439086057
:10098000704730B500210022002400235C4D6D68C3
:1009900005F00C0121B1042905D0082923D105E077
:1009A0005C4D056022E05B4D05601FE0544D6D68B5
:1009B00005F47012524D6D6805F48034022505EB84
:1009C00092421CB9544D554305600BE04C4D6D6887
:1009D00005F400351DB1504D5543056002E04D4D05
:1009E0005543056002E04B4D056000BF00BF444D1C
:1009F0006D6805F0F0010909484D6B5C0568DD4044
:100A000045603F4D6D6805F4E061090A434D6B5C3C
:100A10004568DD4085603A4D6D6805F46051C90A4E
:100A20003E4D6B5C4568DD40C560354D6D6805F435
:100A30004041890B3A4D6B5CC568B5FBF3F5056128
:100A400030BD29B12E4A526902432D4B5A6104E050
:100A50002B4A526982432A4B5A61704729B1284A6E
:100A600092690243264B9A6104E0254A92698243C7
:100A7000234B9A61704729B1214AD2690243204B26
:100A8000DA6104E01E4AD26982431D4BDA61704785
:100A900029B11B4AD2680243194BDA6004E0184AB4
:100AA000D2688243164BDA60704729B1144A126942
:100AB0000243134B1A6104E0114A12698243104B3E
:100AC0001A61704712494039086070470F49C8647D
:100AD00070470B49C87170470948406A40F0807000
:100AE00007494862704701460020054A92680A405B
:100AF0000AB1012000E00020704701498872704768
:100B0000001002400000FFF8FFFFF6FE0000424226
:100B10008004424200127A0000093D0014000020C7
:100B20002400002010B50446FB48844209D101216D
:100B30008803FFF7ADFF00214FF48040FFF7A8FFC7
:100B400032E0F648844209D101214804FFF7ADFFA5
:100B500000214FF40030FFF7A8FF25E0F048844261
:100B600009D101218804FFF7A0FF00214FF4802064
:100B7000FFF79BFF18E0EB48844209D10121C8042C
:100B8000FFF793FF00214FF40020FFF78EFF0BE0EB
:100B9000E548844208D101210805FFF786FF0021BE
:100BA0004FF48010FFF781FF10BD2DE9F04786B0AC
:100BB00005460E460024A24600BFA1460027B08984
:100BC00000B100BF2F462C8A4CF6FF700440F0881D
:100BD00004432C82AC894EF6F3100440B08831896E
:100BE0000843718908430443AC81AC8A4FF6FF4047
:100BF0000440B0890443AC8201A8FFF7C2FEC64896
:100C0000874202D1DDF810A001E0DDF80CA0A88930
:100C100000F4004040B10AEBCA0000EB0A10316852
:100C20004900B0FBF1F807E00AEBCA0000EB0A103C
:100C300031688900B0FBF1F86420B8FBF0F00401E2
:100C40002009642101FB1089A88900F4004040B10B
:100C5000322000EBC900B0FBF1F000F007000443C4
:100C600008E0322000EB09106421B0FBF1F000F045
:100C70000F0004432C8106B0BDE8F0874FF41651F5
:100C8000016000218180C18001810C21418100210E
:100C90008181704710B502460020108A4FF2FF0391
:100CA00018400B884C8823438C882343CC882343EB
:100CB0001843108210BD0021018041808180C180D5
:100CC000704721B1828942F40052828104E0828916
:100CD0004DF6FF731A4082817047F0B50346002439
:100CE00000260025002040F66A17B94200D100BF57
:100CF0001846C1F3421401F01F06012707FA06F552
:100D0000012C01D10C3004E0022C01D1103000E0A4
:100D100014301AB107682F43076002E00768AF4339
:100D20000760F0BD1AB1838A0B43838202E0838A95
:100D30008B4383827047028A4FF6F0731A40028217
:100D4000028A0A430282704782894FF2FF731A4077
:100D5000828182890A438281704721B1828942F06F
:100D60000202828104E082894FF6FD731A4082817B
:100D70007047028A4FF6DF731A400282028A0A43E2
:100D80000282704721B1028A42F48042028204E06A
:100D9000028A4BF6FF731A4002827047C1F30802C1
:100DA0008280704701468888C0F3080070478189B7
:100DB00041F0010181817047028BD2B20283028B24
:100DC00042EA012202837047028B02F47F420283CF
:100DD000028B0A430283704721B1828A42F02002CB
:100DE000828204E0828A4FF6DF731A408282704763
:100DF00021B1828A42F01002828204E0828A4FF698
:100E0000EF731A408282704721B1828A42F0080251
:100E1000828204E0828A4FF6F7731A40828270471A
:100E200021B1828942F40042828103E08289C2F3C7
:100E30000E028281704721B1828A42F4006282826E
:100E400004E0828A4FF2FF731A4082827047828ADE
:100E50004FF6FB731A408282828A0A43828270476D
:100E600021B1828A42F00202828204E0828A4FF635
:100E7000FD731A408282704702460020B1F5007F60
:100E800000D100BF13880B400BB1012000E000200F
:100E9000704701F40072B2F5007F00D100BFCA4371
:100EA0000280704770B50246002400230025002010
:100EB00040F66A16B14200D100BFC1F3421501F0FD
:100EC0001F03012606FA03F3012D02D19689334050
:100ED00006E0022D02D1168A334001E0968A3340A3
:100EE0000C12012606FA04F41688344013B10CB132
:100EF000012000E0002070BD10B50022002340F664
:100F00006A14A14200D100BF0A1201249440A3B286
:100F1000DC43048010BD0000003801400044004064
:100F200000480040004C00400050004000BF7047A7
:100F300000BF4C4A128802F04002002AF9D0C2B227
:100F4000484B1B1D1A80704708B525208DF80000FE
:100F500001208DF801008DF802008DF8030068462D
:100F6000FFF7F7F908BD10B586B00446012104204B
:100F7000FFF774FD01218803FFF770FD4FF4007047
:100F8000ADF8140018208DF8170003208DF8160016
:100F900005A93548FFF7A6FA4FF48060ADF81400B4
:100FA00004208DF8170005A92F48FFF79BFA01943C
:100FB0000020ADF80800ADF80A00ADF80C00ADF85F
:100FC00010000C20ADF80E0001A92648FFF7EDFD3A
:100FD000FFF7BAFF012240F225512248FFF77DFEBC
:100FE00001212048FFF76DFE06B010BD70B5044624
:100FF0000D4629462046FFF7D1FE00BF802120463E
:10100000FFF73AFF0028F9D070BD70B506460C46D0
:10101000002500BF615D3046FFF7E8FF6D1C605D95
:101020000028F7D100BF40213046FFF725FF0028F8
:10103000F9D070BD10B540F225510A48FFF732FFD4
:1010400078B10848FFF7AEFEC4B204F0F000A02863
:1010500007D104F00F000549087005A10148FFF70A
:10106000D4FF10BD00380140000801402C000020D2
:101070004F4B0D0A0000000030B50146B1F1807FF2
:1010800001D3012030BD21F07F40401E4FF0E0220F
:10109000506150170F22002807DA13071D0E2A4B44
:1010A00000F00F04241F1D5503E013071C0E274BEF
:1010B0001C5400BF00204FF0E02290610720106117
:1010C0000020DFE731B5224800682249B0FBF1F586
:1010D0002846FFF7D1FF002408E000BF4FF0E020D2
:1010E000006900F480300028F8D0641C0098844225
:1010F000F3D34FF0E020006920F001004FF0E02131
:10110000086138BD31B5124800684FF47A71B0FB00
:10111000F1F52846FFF7B0FF002408E000BF4FF0CC
:10112000E020006900F480300028F8D0641C0098AA
:101130008442F3D34FF0E020006920F001004FF02B
:10114000E021086138BD000018ED00E000E400E097
:101150000000002040420F004FF4A060FFF7F4F8B9
:101160004FF4E130FFF7FFFE00F02DFB314A402144
:10117000802000F07FF90546002405E02A46002182
:10118000084600F06EFA641C3F2CF7DB00F033FADF
:10119000002444E0284A0321012000F041FA264AB5
:1011A00020320421012000F03BFA234A403205217D
:1011B000012000F035FA204A0321022000F030FA25
:1011C0001D4A20320421022000F02AFA1A4A403235
:1011D0000521022000F024FA174A0321084600F0F6
:1011E0001FFA154A20320421032000F019FA124A8E
:1011F00040320521032000F013FA0F4A0321042096
:1012000000F00EFA0C4A20320421084600F008FAD9
:10121000094A40320521042000F002FA641CFF2C28
:10122000B8DB00F0E8F9284600F035F901E000F0FD
:10123000D4FBFCE72D0000202D040020704700BFE8
:10124000FEE700BFFEE700BFFEE700BFFEE7704716
:10125000704770477047000070B503460C4603E0C6
:1012600014F8015B03F8015B1500A2F10102F7D14C
:1012700070BD30B5034601E003F8011B1400A2F174
:101280000102F9D130BD10B50446764951F8241059
:101290004A00754951F824000021FFF7EAFF73491D
:1012A00051F824207049083951F824000021FFF733
:1012B000E0FF01216C480830015510BD10B5014612
:1012C0000023002207E0684850F8210030F812009F
:1012D00000B15B1C521C634850F821009042F2D8C8
:1012E000642058435F4C54F82140B0FBF4F0C0B286
:1012F00010BD2DE9F04304460F460025A9465A4883
:101300000830005D10B92046FFF7BDFF1FB94FF050
:10131000FF30BDE8F083564850F82400B7FBF0F6E4
:10132000534850F82400B7FBF0F100FB117000B1F6
:10133000761C4C4850F82400451E20E04A4850F8DE
:10134000240030F8150010B909F1010901E04FF04F
:101350000009B14512D14FF0000808E0424850F8AA
:10136000240005EB080220F8126008F10108B045DE
:10137000F4D33F4850F824006843CAE76D1E002D9F
:10138000DCDA4FF0FF30C4E7F0B504460E463648CD
:101390000830005D20B92046FFF775FF0120F0BD41
:1013A000324850F82400B04217D9314850F8240090
:1013B000B6FBF0F12C4850F8240030F8112000253D
:1013C00007E00023284850F824004F1920F8173070
:1013D0006D1C9542F5DB0020E1E70220DFE770B5E8
:1013E00005460C4604B970BD1F48083850F8250062
:1013F000261A31462846FFF7C7FF00BFF3E770B54E
:1014000004460E4631462046FFF773FF0546681C2A
:1014100008B9002070BD1448083850F8240028444A
:10142000F8E7F0B504460F46164631462046FFF76A
:1014300060FF0546681C08B90020F0BD0A4908395C
:1014400051F82410481932463946FFF705FF39464E
:101450002046FFF7C4FF0448083850F82400284409
:10146000EBE70000A029000898040020B02900083C
:10147000A82900082DE9F04105460E461746062129
:101480000020FFF7BCFF044666702570C4F80270A8
:101490002046BDE8F08110B5044621460020FFF744
:1014A0009EFF10BD08B501210820FFF7D7FA1420D0
:1014B0008DF8030003208DF802004FF48060ADF832
:1014C00000006946FE48FFF70DF84FF40060ADF8E4
:1014D00000006946FA48FFF705F801229102F84832
:1014E000FFF7B1F80122D102F548FFF7ACF808BDCB
:1014F00010B50122D102F248FFF7A5F801229102AE
:10150000EF48FFF7A0F800224FF40061EC48FFF726
:101510009AF800224FF48061E948FFF794F810BD73
:1015200010B500224FF40061E548FFF78CF8012266
:101530009102E348FFF787F80122D102E048FFF764
:1015400082F810BD70B50546002415E080202041CA
:1015500000EA05024FF40061D948FFF774F8012250
:101560009102D748FFF76FF800224FF48061D4480A
:10157000FFF769F8601CC4B2082CE7DB0122910276
:10158000CF48FFF760F800224FF48061CC48FFF7A6
:101590005AF870BD10B50446FFF7AAFF7820FFF790
:1015A000D1FF0020FFF7CEFF2046FFF7CBFFFFF76C
:1015B000B7FF10BD10B50446FFF79AFF7820FFF77C
:1015C000C1FF4020FFF7BEFF2046FFF7BBFFFFF73C
:1015D000A7FF10BD70B505460C4645F0B000FFF7FB
:1015E000D9FF102141EA1410FFF7D4FF04F00F00D7
:1015F000FFF7D0FF70BD70B500240EE0002120463B
:10160000FFF7E8FF002504E00020FFF7D3FF681C88
:10161000C5B2802DF8DB601CC4B2082CEEDB70BDB7
:101620002DE9F04106460F469046002414E07A1E4C
:101630001207110E721E04EB4202D0B2FFF7CAFF6E
:10164000002506E005EB041118F80100FFF7B2FFD2
:101650006D1C102DF6DB641C022CE8DB0020BDE8BD
:10166000F0812DE9F04180460D461446607840280F
:1016700003DD4FF0FF30BDE8F0812078802802DDE7
:101680006FF00200F7E76078C11700EB5171C910E5
:10169000A0EBC10111B16FF00400ECE7E91705EB15
:1016A0005171C910A5EBC10111B16FF00500E2E75E
:1016B000002613E0A919C8B24146FFF78BFF0027A7
:1016C00008E0D4F80210227806FB0272885CFFF76B
:1016D00071FF7F1C2078B842F3DC761C6078C1175C
:1016E00000EB5171B6EBE10FE4DB0020C3E72DE91D
:1016F000F04106460F46154698467A1ED206110E50
:10170000721E5206100EFFF765FF002417E0B8F1B5
:10171000000F0AD0A5F120016A4A02EB0111095D10
:10172000C943C8B2FFF746FF07E0A5F12001654AAB
:1017300002EB0111085DFFF73DFF601CC4B2082CED
:10174000E5DB7A1ED206110E721E012303EB420264
:10175000D0B2FFF73FFF00241BE0B8F1000F0CD020
:10176000A5F12001574A02EB011204F10801515C76
:10177000C943C8B2FFF71EFF09E0A5F12001514A95
:1017800002EB011204F10801505CFFF713FF601C2B
:10179000C4B2082CE1DBBDE8F0812DE9F041074639
:1017A0000E4615469846002408E02A5D3019C1B25D
:1017B00043463846FFF79BFF601CC4B2285D0028F3
:1017C000F3D1BDE8F08110B5FFF76CFE6420FFF7A0
:1017D00099FCAE20FFF7DEFE0020FFF7DBFE1020B5
:1017E000FFF7D8FE4020FFF7D5FEB020FFF7D2FE6E
:1017F0008120FFF7CFFEFF20FFF7CCFEA120FFF7EF
:10180000C9FEA620FFF7C6FEA820FFF7C3FE3F20B3
:10181000FFF7C0FEC820FFF7BDFED320FFF7BAFEDA
:101820000020FFF7B7FED520FFF7B4FE8020FFF7BA
:10183000B1FED820FFF7AEFE0520FFF7ABFED920A2
:10184000FFF7A8FEF120FFF7A5FEDA20FFF7A2FEC2
:101850001220FFF79FFEDB20FFF79CFE3020FFF7F2
:1018600099FE2020FFF796FE0220FFF793FE8D20C1
:10187000FFF790FE1420FFF78DFEAF20FFF78AFEE2
:10188000FFF7B9FE10BD0FB470B58AB004460D461F
:10189000202102A800F03DF9002611A8019002A81D
:1018A000019A109900F00CFC0646002001900023DC
:1018B00002AA29462046FFF770FF30460AB003E02F
:1018C000000C0140B829000870BC5DF814FB000052
:1018D0000FB4F0B589B004460D461646202101A884
:1018E00000F017F9002712A8009001A8009A11999A
:1018F00000F0E6FB074600200090234601AA31468F
:101900002846FFF74AFF384609B0F0BC5DF814FBE3
:1019100010B5044667480078042807DC654800785D
:10192000002803DD634800786349087063A30C2234
:1019300001210020FFF7CCFF5F490978012900D180
:1019400000E0002108465FA301221146FFF7C0FF17
:1019500059490978022901D1012100E000210846F6
:101960005AA301220221FFF7B3FF53490978032943
:1019700001D1012100E00021084655A301220321E5
:10198000FFF7A6FF4C490978042901D1012100E0A5
:10199000002108464FA301220421FFF799FF454883
:1019A000007800B110BD44480078012806D0022814
:1019B00005D0032804D004280CD102E00AE009E095
:1019C00008E0002045490870FFF715FE0F203A494E
:1019D000087000BF00BF00BFE4E710B53F480078C3
:1019E00020B13F480078FFF793FF60E0314800786E
:1019F000042807DC2F480078002803DD2D480078F4
:101A0000374908702DA30C2201210020FFF760FF49
:101A100033490978012900D100E00021084631A3AB
:101A200001221146FFF754FF2D490978022901D1FF
:101A3000012100E0002108462CA301220221FFF72A
:101A400047FF27490978032901D1012100E000213E
:101A5000084628A301220321FFF73AFF204909780D
:101A6000042901D1012100E00021084623A301221D
:101A70000421FFF72DFF0F48007800B110BD184872
:101A80000078012806D002280DD003280CD00428A5
:101A90000CD10AE0012011490870FFF7ACFD0F20BE
:101AA0000F49087002E001E000E000BF00BF00BF86
:101AB000E4E700002C000020A6040020302D3E4F5B
:101AC0004B0000002B313030000000002B31300083
:101AD0002B3100004241434B00000000A4040020D1
:101AE000A50400204144442000000000535542203A
:101AF000000000005155495400000000454E544577
:101B000052200000D2B201E000F8012B491EFBD2A6
:101B100070470022F6E710B513460A4604461946F8
:101B2000FFF7F0FF204610BD30B50B460146002000
:101B30002022012409E021FA02F59D4205D303FA8F
:101B400002F5491B04FA02F52844151EA2F1010210
:101B5000F1DC30BD2DE9F05F0546002092469B4642
:101B600088460646814640241BE0284641464746B3
:101B7000224600F0FAF953465A46C01A914110D352
:101B800011461846224600F0E1F92D1A67EB0108CC
:101B90004F4622460120002100F0D8F917EB00093A
:101BA0004E41201EA4F10104DFDC484631462A469E
:101BB0004346BDE8F09F2DE9FE4F804681EA0300D1
:101BC000C00F0C46009021F0004123F00045B8EB17
:101BD0000200A94105D24046214690461C460B46CC
:101BE000024623F00040104347D0270DC7F30A00F8
:101BF000C3F30A510290401A019040286BDAC3F3F4
:101C0000130040F4801B0098924620B10023D2EBD1
:101C1000030A63EB0B0B01985946C0F14002504692
:101C200000F094F906460D4650465946019A00F0D8
:101C3000ACF910EB08006141002487EA115284EAF4
:101C4000E7731A4340D0009A62B3019A012A4FEA1F
:101C5000075215DC001B61EB02014FF0004202EA63
:101C60000752CDE90042001C41F5801132462B4657
:101C700000F0ACF903B0BDE8F08F40462146F9E72B
:101C8000001B61EB0201001C41F5801300185B4151
:101C90002018A2F5001747EB030140EAD570B619EA
:101CA0006D4111E06D084FEA360645EAC0754FEA0E
:101CB0000752001B61EB0201001C41F5801149082D
:101CC0004FEA30000019514132462B4603B0BDE8BF
:101CD000F04F00F06CB90098012240000023D0EBD7
:101CE000020263EBE073009821464FEAE074B8EB20
:101CF000000061EB0401E9E783F000435BE781F05A
:101D0000004158E72DE9FE4F81EA030404F0004446
:101D100021F0004100944FF0000B23F0004350EA03
:101D200001045ED052EA03045BD0C3F30A54C1F34A
:101D30000A552C44A4F2F3340194A0FB0254C1F3DD
:101D4000130141F48011C3F3130343F4801301FB27
:101D5000024400FB034E840A970A44EA815447EA8E
:101D60008357A4FB076802958D0A05FB07854FEA98
:101D7000932C04FB0C542705029D4FEA065847EAB2
:101D80001637B5EB08056EEB070C870E920E47EA87
:101D9000811742EA8312A7FB0201B6EB0B0164EB49
:101DA00000042B0D43EA0C335E1844EB1C50DA465A
:101DB0005146E7FB0201C5F313044FEA0B3343EA34
:101DC00014534FEA0432019C43EA0603A4F10C04C5
:101DD0000294009CCDE900B400F0F8F803B0BDE82F
:101DE000F08F00200146F9E72DE9F04D81EA030468
:101DF00004F0004B21F0004514464FF0000A23F098
:101E0000004150EA050220D054EA01021DD0C5F37A
:101E10000A570246C5F31303C1F31300C1F30A5670
:101E200040F4801543F48013A7EB0608101BD64638
:101E300008F2FD3873EB050002D308F1010801E058
:101E400092185B41B8F1000F03DA00200146BDE8AB
:101E5000F08D00204FF48011064684460EE0171BDB
:101E600073EB050705D3121B63EB050306434CEA2E
:101E7000010C49084FEA300092185B4150EA010713
:101E8000EDD152EA030012D082EA040083EA050190
:101E9000084305D0101BAB4106D20122002306E007
:101EA00000224FF0004302E06FF0010253101AEBE2
:101EB00006004CEB085110EB0A0041EB0B01BDE8AA
:101EC000F04D00F074B8C1F30A52C1F3130140F2AF
:101ED000FF3341F480119A4202DA00200146704734
:101EE00040F233439A42A2F2334202DC524200F003
:101EF0003CB800F02BB8000030B5041E71F10004AE
:101F000004DB4FF00044404264EB0101141E73F106
:101F1000000405DB1C464FF00043524263EB040310
:101F2000994208BF904230BD064C074D06E0E0687C
:101F300040F0010394E8070098471034AC42F6D310
:101F4000FEF7FAF8A82F0008C82F0008202A04DBA3
:101F5000203A00FA02F1002070479140C2F12003BC
:101F600020FA03F3194390407047202A04DB203AFB
:101F700021FA02F00021704721FA02F3D040C2F1A9
:101F800020029140084319467047202A06DBCB17F0
:101F9000203A41FA02F043EAE07306E041FA02F324
:101FA000D040C2F12002914008431946704710B555
:101FB000141E73F1000408DA401C41F1000192186C
:101FC0005B411A4301D120F0010010BD2DE9F04D15
:101FD00092469B4611B1B1FA81F202E0B0FA80F26A
:101FE00020329046FFF7B2FF04460F4640EA0A004F
:101FF00041EA0B0153465A46084313D0114653EAAF
:10200000010019D0C8F140025046FFF7AEFF054667
:102010000E46504659464246FFF798FF084305D002
:10202000012004E020463946BDE8F08D002005433C
:1020300046EAE0762C4337430A986305E40AA0EBAE
:1020400008000022FD0A44EA47540A3002D5002065
:102050000146E9E7010510196941DDE90845001964
:102060006941BDE8F04DA2E770B58C1810F8015B2E
:1020700015F0070301D110F8013B2A1106D110F821
:10208000012B03E010F8016B01F8016B5B1EF9D125
:102090002B0705D40023521E0DD401F8013BFAE7AB
:1020A00010F8013BCB1A921C03E013F8015B01F816
:1020B000015B521EF9D5A142D8D3002070BD0000AB
:1020C00037B514460846064B6A46214600F0CCF860
:1020D00004466946002000F05EFC20463EBD00003C
:1020E0009729000802E008C8121F08C1002AFAD187
:1020F00070477047002001E001C1121F002AFBD188
:10210000704700002DE9FF5FDDE90220010DDDF8D9
:1021100038B0024318D044F61050A1F2FF314143C9
:102120000D140F98012820D0A5EB0B00401C5FEA8E
:10213000000A4FF00004474EDFF81C91A0465046BD
:1021400016D5CAF1000728E00F98012443A2012800
:1021500008D0002100980F9BC0E90021C0E902438C
:10216000BDE8FF9F6FEA0B01F4E7CBF10000DEE76B
:10217000074612E0F80707D0224633464046494654
:10218000FFF7C0FD80468946224633461046194671
:10219000FFF7B8FD04460E467F10002FEAD1DDE9B7
:1021A0000201BAF1000F42464B4602DAFFF7AAFDE0
:1021B00001E0FFF719FE04460E460022284BFFF708
:1021C0009BFE03D84FF0FF30014607E00022254B6D
:1021D00020463146FFF7EFFCFFF775FE102409E0BB
:1021E000002C0ADB0A220023FFF7B4FC019B3032EB
:1021F0001A55641E50EA0102F2D1641C019AC4F11E
:10220000110314440F9A012A03D0012208430DD16F
:102210000AE0084304D000204FF0110B0F9080E734
:10222000A3EB0B056D1E0DE05B4504DD4FF00002D6
:1022300005F1010504E003DA4FF00002A5F1010504
:10224000002AECD000980F99C0E90231C0E900459E
:1022500086E70000000024400000F03F300000004E
:102260000000F0430000E03F2DE9FF4F95B09B4692
:102270008946064600250FE2252877D10024274607
:10228000F84A0121059400E0044316F8013F203B81
:1022900001FA03F01042F7D130782A2811D06FF0FC
:1022A0002F033078A0F13002092A16D8059A44F09D
:1022B000020402EB820203EB42021044761C0590FA
:1022C000EFE759F8042B0592002A03DA504244F450
:1022D0000054059044F00204761C30782E2816D164
:1022E00016F8010F44F004042A280DD06FF02F02D5
:1022F0003078A0F13003092B09D807EB870302EBF4
:102300004303C718761CF3E759F8047B761C307832
:102310006C280FD006DC4C2817D068280DD06A280E
:1023200014D104E0742810D07A280FD10DE044F4C1
:1023300000140AE044F4801401E044F4401472787C
:10234000824202D104F58014761C761C307866280F
:102350000BD013DC582877D009DC002875D045282D
:10236000F6D04628F4D047281AD19DE118E063281A
:1023700035D0642879D0652812D195E1702873D0C2
:1023800008DC6728F1D069286FD06E280DD06F283F
:1023900006D1B5E073282CD0752875D0782874D074
:1023A0005A46179990476D1C75E1C4F302500228F4
:1023B00009D003280DD0D9F8001004280DD00D60E5
:1023C00009F1040967E1D9F80010EA17C1E90052E0
:1023D000F6E7D9F800100D80F2E70D70F0E719F874
:1023E000041B8DF8001000208DF80100EA46012042
:1023F00003E059F804AB4FF0FF3061074FF00001E4
:1024000002D40DE008F101018846B9420FDA804597
:10241000F8DB1AF808100029F4D108E008F10101EE
:1024200088468142FADB1AF808100029F6D105988F
:102430005B46A0EB080721463846179A00F094FA4D
:10244000284400EB080507E04DE029E10DE01AF80B
:10245000010B5A4617999047B8F10108F7D25B462D
:1024600021463846179A13E142E00A220092C4F34B
:1024700002524FF0000A022A08D059F804CB032A6E
:102480004FEAEC710AD00DE029E02AE009F10701DA
:1024900021F00702F2E802C1914609E00FFA8CFC34
:1024A0004FEAEC71042A03D14FFA8CFC4FEAEC712D
:1024B000002907DA0A460021DCF1000C61EB020179
:1024C0002D2202E0220504D52B228DF804200122C2
:1024D00003E0E20701D02022F7E7904659E00A2105
:1024E00002E010220DE010214FF0000A00910BE0F5
:1024F00010224FF0000A44F004040827009203E081
:1025000008224FF0000A0092C4F30252022A05D0BA
:1025100059F804CB0021032A08D009E009F107018A
:1025200021F00702F2E802C1914605E01FFA8CFC97
:10253000042A01D10CF0FF0C4FF00008220728D527
:10254000702806D0009B83F0100353EA0A0305D0DD
:102550000EE040228DF80420012208E05CEA01022E
:1025600006D030228DF804208DF805000222904616
:10257000009B83F0080353EA0A030AD15CEA0102D4
:1025800001D1620705D530228DF804204FF00108F3
:102590007F1E582804D034A003900EA802900DE0AE
:1025A00036A0F9E753466046009AFFF7D3FA84460F
:1025B0000398825C0298401E029002705CEA01005F
:1025C000F0D1029806A9081A00F1200A600702D586
:1025D00024F4803400E00127574502DDA7EB0A0010
:1025E00000E0002000EB0A01009005984144401AE9
:1025F0000590E00306D45B462146179A059800F043
:10260000B3F90544002706E001A85A46C05D1799B2
:1026100090476D1C7F1C4745F6DBE0030CD55B46FD
:102620002146179A059800F09FF9054404E03020F0
:102630005A46179990476D1C0099481E0090002932
:10264000F5DC08E0029802995A460078491C02918C
:10265000179990476D1CBAF10001AAF1010AF1DC4B
:1026600065E1000009280100303132333435363756
:1026700038396162636465660000000030313233CE
:10268000343536373839414243444546000000006E
:1026900000F058F90544761C307800287FF4ECAD42
:1026A00019B02846BDE8F08F620700D4062709F16B
:1026B000070222F0070CFCE80223E14603F0004881
:1026C0005FEA080C02D00FF2702C0DE05FEA045CA8
:1026D00002D50FF2682C07E05FEAC47C02D00FF24B
:1026E000602C01E0AFF2700C4FF0FF3823F0004394
:1026F000CDF850C065280CD006DC452809D0462806
:102700001DD047283DD13DE0662818D067287ED1EE
:1027100038E00021112F01DB112000E0781CCDE909
:10272000000106A90EA8FFF7EDFCDDE90F010E9AE6
:1027300003910021009207F1010A04914DE04FF04E
:1027400000400097CDE9011006A90EA8FFF7DAFCBA
:10275000DDE90F0203920E9B11990022DDF80CA017
:102760000093049211B9791C00EB010AB7EB0A003F
:1027700004D4C0F1FF3007F1010A0490AAEB07006E
:10278000019044E0012F00DA01270021112F01DD23
:10279000112000E03846CDE9000106A90EA8FFF798
:1027A000B1FCDDE90F010E9A039100210491009222
:1027B000BA4621070CD40399514500DA8A46BAF18A
:1027C000010F05DD009AAAF10101515C302908D002
:1027D000B84202DA10F1040F06DA0121CDE9011046
:1027E00015E0AAF10101E9E7002805DC049901449C
:1027F0000491AAEB000102E0411C514500DD8A462C
:102800000499401A401C01904FF0004002902007AC
:1028100004D40198504501DBCDF8048000208DF8E8
:102820004F0002980DF14F07B0F1004F25D02B203B
:102830000E9002984FF0020800280CDA40420290F5
:102840002D200E9007E00A210298FFF76DF9303134
:10285000029007F8011DB8F10001A8F10108F2DCAF
:1028600002980028EFD1791E0E980870307800F099
:10287000200040F0450007F8020D12A8C01B00F12F
:1028800007081498007800B1012000EB0A010198B4
:1028900001EBE07105984144401A401E0590E003A9
:1028A00006D45B462146179A059800F05DF805446A
:1028B0001498007818B15A46179990476D1CE00398
:1028C00024D55B462146179A059800F04DF805443B
:1028D0001CE00498002807DBDDE90301884203DDE2
:1028E0000098405C179901E0179930205A469047AC
:1028F000049805F10105401C04900198401E0190C8
:1029000004D12E205A46179990476D1CBAF1000148
:10291000AAF1010ADDDC05E017F8010B5A46179908
:1029200090476D1CB8F10001A8F10108F4DC5B468A
:102930002146179A0598ABE62D0000002B000000F9
:10294000200000002DE9F041044600251E461746F0
:10295000880404D405E039462020B0476D1C641E6D
:10296000F9D52846BDE8F0812DE9F041044600255F
:102970001E469046C80301D5302700E02027880472
:1029800004D505E041463846B0476D1C641EF9D5B4
:102990002846BDE8F0810A68531C0B601070704730
:1029A00010000000100000002000000020000000C7
:1029B0000002000000020000000000000000000013
:1029C0000000000000000000000000F8000000000F
:1029D000000000333000000000100C06100C060050
:1029E000000000000000000040C07840C0784000B7
:1029F000043F04043F040400007088FC0830000019
:102A0000001820FF211E0000F008F000E018000070
:102A100000211C031E211E0000F008887000000029
:102A20001E2123241927211010160E00000000007B
:102A30000000000000000000000000E01804020098
:102A4000000000071820400000020418E000000009
:102A50000040201807000000404080F08040400007
:102A60000202010F01020200000000F0000000005D
:102A70000101011F01010100000000000000000031
:102A800080B07000000000000000000000000000A6
:102A9000000101010101010100000000000000002F
:102AA00000303000000000000000000080601804CA
:102AB000006018060100000000E010080810E000A7
:102AC000000F102020100F00001010F80000000070
:102AD0000020203F202000000070080808887000B7
:102AE0000030282422213000003008888848300037
:102AF0000018202020110E000000C02010F8000057
:102B000000070424243F240000F8088888080800EF
:102B10000019212020110E0000E010888818000004
:102B2000000F112020110E0000380808C8380800D6
:102B30000000003F00000000007088080888700056
:102B4000001C222121221C0000E010080810E000D7
:102B50000000312222110F00000000C0C000000060
:102B60000000003030000000000000800000000085
:102B7000000080600000000000008040201008007D
:102B80000001020408102000404040404040400046
:102B90000404040404040400000810204080000021
:102BA0000020100804020100007048080808F00026
:102BB0000000003036010000C030C828E810E000F6
:102BC0000718272423140B000000C038E000000081
:102BD000203C23020227382008F8888888700000EB
:102BE000203F202020110E00C030080808083800BF
:102BF000071820202010080008F808080810E00036
:102C0000203F202020100F0008F88888E8081000D6
:102C1000203F20202320180008F88888E8081000AA
:102C2000203F200003000000C030080808380000E2
:102C300007182020221E020008F808000008F808E3
:102C4000203F210101213F20000808F8080800006A
:102C50000020203F2020000000000808F80808009D
:102C6000C08080807F00000008F888C02818080015
:102C7000203F20012638200008F80800000000004E
:102C8000203F20202020300008F8F800F8F8080045
:102C9000203F003F003F200008F830C00008F8083F
:102CA000203F200007183F00E01008080810E0004F
:102CB0000F10202020100F0008F808080808F00066
:102CC000203F210101010000E01008080810E00089
:102CD0000F18242438504F0008F88888888870001E
:102CE000203F2000030C30200070880808083800BE
:102CF0000038202121221C00180808F808081800B4
:102D00000000203F2000000008F808000008F80834
:102D1000001F202020201F000878880000C83808E5
:102D2000000007380E010000F80800F80008F8005D
:102D3000033C0700073C03000818688080681808F7
:102D400020302C03032C30200838C800C838080075
:102D50000000203F2000000010080808C8380800C4
:102D60002038262120201800000000FE0202020068
:102D70000000007F40404000000C30C00000000018
:102D8000000000010638C00000020202FE00000040
:102D9000004040407F0000000000040202020400E6
:102DA0000000000000000000000000000000000023
:102DB000808080808080808000020204000000000B
:102DC0000000000000000000000080808080000003
:102DD0000019242222223F2008F8008080000000F1
:102DE000003F112020110E000000008080800000B4
:102DF000000E112020201100000000808088F800C3
:102E0000000E112020103F200000808080800000F4
:102E1000001F222222221300008080F08888881858
:102E20000020203F20200000000080808080800063
:102E3000006B94949493600008F8008080800000F8
:102E4000203F210000203F200080989800000000D3
:102E50000020203F20200000000000809898000003
:102E600000C08080807F000008F800008080800023
:102E7000203F24022D302000000808F80000000048
:102E80000020203F20200000808080808080800003
:102E9000203F20003F20003F808000808080000095
:102EA000203F210000203F20000080808080000023
:102EB000001F202020201F00808000808000000054
:102EC00080FFA12020110E00000000808080800083
:102ED000000E112020A0FF80808080008080800074
:102EE00020203F21200001000000808080808000A1
:102EF0000033242424241900008080E08080000016
:102F00000000001F20200000808000000080800062
:102F1000001F202020103F208080800000808080C3
:102F200000010E3008060100808000800080808053
:102F30000F300C030C300F00008080008080800078
:102F40000020312E0E3120008080800000808080A3
:102F500080818E7018060100008080808080800053
:102F60000021302C2221300000000000807C020271
:102F700000000000003F404000000000FF00000093
:102F800000000000FF0000000002027C8000000042
:102F90000040403F0000000000060101020204045E
:102FA0000000000000000000C82F00080000002002
:102FB000A80400006820000890310008A804002040
:102FC00038060000F42000081184A24A04680901B0
:102FD000020304060708090C691055020406080AD2
:102FE00031FF01CA7F0E19015C3F3FBF012A3F0F2D
:102FF000692119182B3F1F01CB3F3F34093401953C
:103000001F070301F80BC1E3F3FBFBFDFDFCFEFE14
:10301000282AFE01B7FCFDF9F0C0800B3E010780B5
:10302000794F6CC0F0FCE24A5FDE29DF1A7F073976
:10303000EF38095F5F5FDFDFDFFFBF8C3BF8E03613
:103040006C80C0E034093A0114FEFE3CAAF80F5827
:103050000AFFFBF373F8FCFCFCFEF91808F8FBF31D
:10306000F3F7F7FE12591419012CFCF29FA009176F
:10307000011A7FB809100139D4F92B121FA90F28A2
:1030800012F90DC5E4F2FBFBFBF7F7F7E7E787D78B
:10309000F7F74DB8087E7C7973A7C7E7380D17FCA2
:1030A000031F3F8449AE0410FCFCF8380B010101FA
:1030B000030307070F0F1F92430703AA3F3B1BE3BE
:1030C000E03F6811E6CECCDEDE9E9EDEDEEEFEF751
:1030D000F6FBFFFEF889B63C3F0F015009168269E6
:1030E000891CF8F0E001041DC0C0805A03920B1740
:1030F0007F7FD3297538097F3F3F1F0F0F07037B61
:1031000061091D80B98C3809FEFEFCFCF8F8F0F06E
:10311000930919015AE1015AE301390D09152C09E6
:1031200010671116FE0222DA062BFC04012AFCA30A
:1031300015081008072BFF410122FF200F10600225
:103140000CC01008F714549414F4041504047C0300
:10315000180A011D13115599513F11DB12F012FF8E
:10316000200BF080904C57A4544C8480400F1F10CB
:103170000F081F10101515FF1515101013C004327D
:10318000201C68C0060812025268130F0F000000CE
:0400000508000131BD
:00000001FF
